{
  "_format": "hh-sol-artifact-1",
  "contractName": "StudentProfile",
  "sourceName": "contracts/StudentProfile.sol",
  "abi": [
    {
      "inputs": [
        {
          "internalType": "string",
          "name": "",
          "type": "string"
        },
        {
          "internalType": "uint256",
          "name": "",
          "type": "uint256"
        }
      ],
      "name": "classMap",
      "outputs": [
        {
          "internalType": "string",
          "name": "",
          "type": "string"
        }
      ],
      "stateMutability": "view",
      "type": "function"
    },
    {
      "inputs": [
        {
          "internalType": "string",
          "name": "_username",
          "type": "string"
        },
        {
          "internalType": "string",
          "name": "_name",
          "type": "string"
        },
        {
          "internalType": "string",
          "name": "_class",
          "type": "string"
        }
      ],
      "name": "createFaculty",
      "outputs": [],
      "stateMutability": "nonpayable",
      "type": "function"
    },
    {
      "inputs": [
        {
          "internalType": "string",
          "name": "_rollno",
          "type": "string"
        },
        {
          "internalType": "string",
          "name": "_name",
          "type": "string"
        },
        {
          "internalType": "string",
          "name": "_password",
          "type": "string"
        },
        {
          "internalType": "string",
          "name": "_class",
          "type": "string"
        }
      ],
      "name": "createStudent",
      "outputs": [],
      "stateMutability": "nonpayable",
      "type": "function"
    },
    {
      "inputs": [
        {
          "internalType": "string",
          "name": "",
          "type": "string"
        }
      ],
      "name": "facultyClassMap",
      "outputs": [
        {
          "internalType": "string",
          "name": "",
          "type": "string"
        }
      ],
      "stateMutability": "view",
      "type": "function"
    },
    {
      "inputs": [
        {
          "internalType": "string",
          "name": "",
          "type": "string"
        }
      ],
      "name": "facultyMap",
      "outputs": [
        {
          "internalType": "string",
          "name": "userName",
          "type": "string"
        },
        {
          "internalType": "string",
          "name": "name",
          "type": "string"
        },
        {
          "internalType": "string",
          "name": "class",
          "type": "string"
        }
      ],
      "stateMutability": "view",
      "type": "function"
    },
    {
      "inputs": [
        {
          "internalType": "string",
          "name": "_username",
          "type": "string"
        }
      ],
      "name": "getFacultyDetails",
      "outputs": [
        {
          "internalType": "string",
          "name": "",
          "type": "string"
        },
        {
          "internalType": "string",
          "name": "",
          "type": "string"
        },
        {
          "internalType": "string",
          "name": "",
          "type": "string"
        }
      ],
      "stateMutability": "view",
      "type": "function"
    },
    {
      "inputs": [
        {
          "internalType": "string",
          "name": "_rollno",
          "type": "string"
        }
      ],
      "name": "getStudentDetails",
      "outputs": [
        {
          "internalType": "string",
          "name": "",
          "type": "string"
        },
        {
          "internalType": "string",
          "name": "",
          "type": "string"
        },
        {
          "internalType": "string",
          "name": "",
          "type": "string"
        },
        {
          "internalType": "string",
          "name": "",
          "type": "string"
        }
      ],
      "stateMutability": "view",
      "type": "function"
    },
    {
      "inputs": [
        {
          "internalType": "string",
          "name": "_class",
          "type": "string"
        }
      ],
      "name": "getStudentsInClass",
      "outputs": [
        {
          "internalType": "string[]",
          "name": "",
          "type": "string[]"
        }
      ],
      "stateMutability": "view",
      "type": "function"
    },
    {
      "inputs": [
        {
          "internalType": "string",
          "name": "",
          "type": "string"
        }
      ],
      "name": "studentMap",
      "outputs": [
        {
          "internalType": "string",
          "name": "rollno",
          "type": "string"
        },
        {
          "internalType": "string",
          "name": "name",
          "type": "string"
        },
        {
          "internalType": "string",
          "name": "password",
          "type": "string"
        },
        {
          "internalType": "string",
          "name": "class",
          "type": "string"
        }
      ],
      "stateMutability": "view",
      "type": "function"
    }
  ],
  "bytecode": "0x608060405234801561001057600080fd5b506118bd806100206000396000f3fe608060405234801561001057600080fd5b50600436106100935760003560e01c8063899280b511610066578063899280b5146101495780638b76f5ec1461017c5780638ba4dd23146101ac578063a9ef5f6d146101c8578063cfbd702d146101f857610093565b806314faf31f14610098578063321e2665146100ca5780636613c784146100e65780638805f0f414610116575b600080fd5b6100b260048036038101906100ad9190611081565b61022a565b6040516100c193929190611149565b60405180910390f35b6100e460048036038101906100df9190611195565b61042f565b005b61010060048036038101906100fb9190611081565b610520565b60405161010d919061126c565b60405180910390f35b610130600480360381019061012b9190611081565b6105d6565b604051610140949392919061128e565b60405180910390f35b610163600480360381019061015e9190611081565b610874565b604051610173949392919061128e565b60405180910390f35b61019660048036038101906101919190611325565b610ada565b6040516101a3919061126c565b60405180910390f35b6101c660048036038101906101c19190611381565b610ba9565b005b6101e260048036038101906101dd9190611081565b610c58565b6040516101ef9190611534565b60405180910390f35b610212600480360381019061020d9190611081565b610d4f565b60405161022193929190611149565b60405180910390f35b606080606060006003856040516102419190611592565b908152602001604051809103902060405180606001604052908160008201805461026a906115d8565b80601f0160208091040260200160405190810160405280929190818152602001828054610296906115d8565b80156102e35780601f106102b8576101008083540402835291602001916102e3565b820191906000526020600020905b8154815290600101906020018083116102c657829003601f168201915b505050505081526020016001820180546102fc906115d8565b80601f0160208091040260200160405190810160405280929190818152602001828054610328906115d8565b80156103755780601f1061034a57610100808354040283529160200191610375565b820191906000526020600020905b81548152906001019060200180831161035857829003601f168201915b5050505050815260200160028201805461038e906115d8565b80601f01602080910402602001604051908101604052809291908181526020018280546103ba906115d8565b80156104075780601f106103dc57610100808354040283529160200191610407565b820191906000526020600020905b8154815290600101906020018083116103ea57829003601f168201915b5050505050815250509050806000015181602001518260400151935093509350509193909250565b6040518060800160405280858152602001848152602001838152602001828152506000856040516104609190611592565b9081526020016040518091039020600082015181600001908161048391906117b5565b50602082015181600101908161049991906117b5565b5060408201518160020190816104af91906117b5565b5060608201518160030190816104c591906117b5565b509050506001816040516104d99190611592565b90815260200160405180910390208490806001815401808255809150506001900390600052602060002001600090919091909150908161051991906117b5565b5050505050565b6002818051602081018201805184825260208301602085012081835280955050505050506000915090508054610555906115d8565b80601f0160208091040260200160405190810160405280929190818152602001828054610581906115d8565b80156105ce5780601f106105a3576101008083540402835291602001916105ce565b820191906000526020600020905b8154815290600101906020018083116105b157829003601f168201915b505050505081565b606080606080600080866040516105ed9190611592565b9081526020016040518091039020604051806080016040529081600082018054610616906115d8565b80601f0160208091040260200160405190810160405280929190818152602001828054610642906115d8565b801561068f5780601f106106645761010080835404028352916020019161068f565b820191906000526020600020905b81548152906001019060200180831161067257829003601f168201915b505050505081526020016001820180546106a8906115d8565b80601f01602080910402602001604051908101604052809291908181526020018280546106d4906115d8565b80156107215780601f106106f657610100808354040283529160200191610721565b820191906000526020600020905b81548152906001019060200180831161070457829003601f168201915b5050505050815260200160028201805461073a906115d8565b80601f0160208091040260200160405190810160405280929190818152602001828054610766906115d8565b80156107b35780601f10610788576101008083540402835291602001916107b3565b820191906000526020600020905b81548152906001019060200180831161079657829003601f168201915b505050505081526020016003820180546107cc906115d8565b80601f01602080910402602001604051908101604052809291908181526020018280546107f8906115d8565b80156108455780601f1061081a57610100808354040283529160200191610845565b820191906000526020600020905b81548152906001019060200180831161082857829003601f168201915b505050505081525050905080600001518160200151826040015183606001519450945094509450509193509193565b6000818051602081018201805184825260208301602085012081835280955050505050506000915090508060000180546108ad906115d8565b80601f01602080910402602001604051908101604052809291908181526020018280546108d9906115d8565b80156109265780601f106108fb57610100808354040283529160200191610926565b820191906000526020600020905b81548152906001019060200180831161090957829003601f168201915b50505050509080600101805461093b906115d8565b80601f0160208091040260200160405190810160405280929190818152602001828054610967906115d8565b80156109b45780601f10610989576101008083540402835291602001916109b4565b820191906000526020600020905b81548152906001019060200180831161099757829003601f168201915b5050505050908060020180546109c9906115d8565b80601f01602080910402602001604051908101604052809291908181526020018280546109f5906115d8565b8015610a425780601f10610a1757610100808354040283529160200191610a42565b820191906000526020600020905b815481529060010190602001808311610a2557829003601f168201915b505050505090806003018054610a57906115d8565b80601f0160208091040260200160405190810160405280929190818152602001828054610a83906115d8565b8015610ad05780601f10610aa557610100808354040283529160200191610ad0565b820191906000526020600020905b815481529060010190602001808311610ab357829003601f168201915b5050505050905084565b6001828051602081018201805184825260208301602085012081835280955050505050508181548110610b0c57600080fd5b90600052602060002001600091509150508054610b28906115d8565b80601f0160208091040260200160405190810160405280929190818152602001828054610b54906115d8565b8015610ba15780601f10610b7657610100808354040283529160200191610ba1565b820191906000526020600020905b815481529060010190602001808311610b8457829003601f168201915b505050505081565b604051806060016040528084815260200183815260200182815250600384604051610bd49190611592565b90815260200160405180910390206000820151816000019081610bf791906117b5565b506020820151816001019081610c0d91906117b5565b506040820151816002019081610c2391906117b5565b5090505080600284604051610c389190611592565b90815260200160405180910390209081610c5291906117b5565b50505050565b6060600182604051610c6a9190611592565b9081526020016040518091039020805480602002602001604051908101604052809291908181526020016000905b82821015610d44578382906000526020600020018054610cb7906115d8565b80601f0160208091040260200160405190810160405280929190818152602001828054610ce3906115d8565b8015610d305780601f10610d0557610100808354040283529160200191610d30565b820191906000526020600020905b815481529060010190602001808311610d1357829003601f168201915b505050505081526020019060010190610c98565b505050509050919050565b600381805160208101820180518482526020830160208501208183528095505050505050600091509050806000018054610d88906115d8565b80601f0160208091040260200160405190810160405280929190818152602001828054610db4906115d8565b8015610e015780601f10610dd657610100808354040283529160200191610e01565b820191906000526020600020905b815481529060010190602001808311610de457829003601f168201915b505050505090806001018054610e16906115d8565b80601f0160208091040260200160405190810160405280929190818152602001828054610e42906115d8565b8015610e8f5780601f10610e6457610100808354040283529160200191610e8f565b820191906000526020600020905b815481529060010190602001808311610e7257829003601f168201915b505050505090806002018054610ea4906115d8565b80601f0160208091040260200160405190810160405280929190818152602001828054610ed0906115d8565b8015610f1d5780601f10610ef257610100808354040283529160200191610f1d565b820191906000526020600020905b815481529060010190602001808311610f0057829003601f168201915b5050505050905083565b6000604051905090565b600080fd5b600080fd5b600080fd5b600080fd5b6000601f19601f8301169050919050565b7f4e487b7100000000000000000000000000000000000000000000000000000000600052604160045260246000fd5b610f8e82610f45565b810181811067ffffffffffffffff82111715610fad57610fac610f56565b5b80604052505050565b6000610fc0610f27565b9050610fcc8282610f85565b919050565b600067ffffffffffffffff821115610fec57610feb610f56565b5b610ff582610f45565b9050602081019050919050565b82818337600083830152505050565b600061102461101f84610fd1565b610fb6565b9050828152602081018484840111156110405761103f610f40565b5b61104b848285611002565b509392505050565b600082601f83011261106857611067610f3b565b5b8135611078848260208601611011565b91505092915050565b60006020828403121561109757611096610f31565b5b600082013567ffffffffffffffff8111156110b5576110b4610f36565b5b6110c184828501611053565b91505092915050565b600081519050919050565b600082825260208201905092915050565b60005b838110156111045780820151818401526020810190506110e9565b60008484015250505050565b600061111b826110ca565b61112581856110d5565b93506111358185602086016110e6565b61113e81610f45565b840191505092915050565b600060608201905081810360008301526111638186611110565b905081810360208301526111778185611110565b9050818103604083015261118b8184611110565b9050949350505050565b600080600080608085870312156111af576111ae610f31565b5b600085013567ffffffffffffffff8111156111cd576111cc610f36565b5b6111d987828801611053565b945050602085013567ffffffffffffffff8111156111fa576111f9610f36565b5b61120687828801611053565b935050604085013567ffffffffffffffff81111561122757611226610f36565b5b61123387828801611053565b925050606085013567ffffffffffffffff81111561125457611253610f36565b5b61126087828801611053565b91505092959194509250565b600060208201905081810360008301526112868184611110565b905092915050565b600060808201905081810360008301526112a88187611110565b905081810360208301526112bc8186611110565b905081810360408301526112d08185611110565b905081810360608301526112e48184611110565b905095945050505050565b6000819050919050565b611302816112ef565b811461130d57600080fd5b50565b60008135905061131f816112f9565b92915050565b6000806040838503121561133c5761133b610f31565b5b600083013567ffffffffffffffff81111561135a57611359610f36565b5b61136685828601611053565b925050602061137785828601611310565b9150509250929050565b60008060006060848603121561139a57611399610f31565b5b600084013567ffffffffffffffff8111156113b8576113b7610f36565b5b6113c486828701611053565b935050602084013567ffffffffffffffff8111156113e5576113e4610f36565b5b6113f186828701611053565b925050604084013567ffffffffffffffff81111561141257611411610f36565b5b61141e86828701611053565b9150509250925092565b600081519050919050565b600082825260208201905092915050565b6000819050602082019050919050565b600082825260208201905092915050565b6000611470826110ca565b61147a8185611454565b935061148a8185602086016110e6565b61149381610f45565b840191505092915050565b60006114aa8383611465565b905092915050565b6000602082019050919050565b60006114ca82611428565b6114d48185611433565b9350836020820285016114e685611444565b8060005b858110156115225784840389528151611503858261149e565b945061150e836114b2565b925060208a019950506001810190506114ea565b50829750879550505050505092915050565b6000602082019050818103600083015261154e81846114bf565b905092915050565b600081905092915050565b600061156c826110ca565b6115768185611556565b93506115868185602086016110e6565b80840191505092915050565b600061159e8284611561565b915081905092915050565b7f4e487b7100000000000000000000000000000000000000000000000000000000600052602260045260246000fd5b600060028204905060018216806115f057607f821691505b602082108103611603576116026115a9565b5b50919050565b60008190508160005260206000209050919050565b60006020601f8301049050919050565b600082821b905092915050565b60006008830261166b7fffffffffffffffffffffffffffffffffffffffffffffffffffffffffffffffff8261162e565b611675868361162e565b95508019841693508086168417925050509392505050565b6000819050919050565b60006116b26116ad6116a8846112ef565b61168d565b6112ef565b9050919050565b6000819050919050565b6116cc83611697565b6116e06116d8826116b9565b84845461163b565b825550505050565b600090565b6116f56116e8565b6117008184846116c3565b505050565b5b81811015611724576117196000826116ed565b600181019050611706565b5050565b601f8211156117695761173a81611609565b6117438461161e565b81016020851015611752578190505b61176661175e8561161e565b830182611705565b50505b505050565b600082821c905092915050565b600061178c6000198460080261176e565b1980831691505092915050565b60006117a5838361177b565b9150826002028217905092915050565b6117be826110ca565b67ffffffffffffffff8111156117d7576117d6610f56565b5b6117e182546115d8565b6117ec828285611728565b600060209050601f83116001811461181f576000841561180d578287015190505b6118178582611799565b86555061187f565b601f19841661182d86611609565b60005b8281101561185557848901518255600182019150602085019450602081019050611830565b86831015611872578489015161186e601f89168261177b565b8355505b6001600288020188555050505b50505050505056fea2646970667358221220630d6f9290ac6fb032b2b43aebc5cfbfde34f2b975cf6d47244d501db8a7c80164736f6c63430008130033",
  "linkReferences": {},
  "deployedLinkReferences": {}
}